:100000000C9463000C948B000C948B000C94F404FF
:100010000C94F4040C94F4040C948B000C948B005A
:100020000C948B000C948B000C948B000C948B0024
:100030000C948B000C948B000C948B000C948B0014
:100040000C94AA040C948B000C948B000C948B00E1
:100050000C948B000C948B000C948B000C948B00F4
:100060000C948B000C948B000000000024002700EF
:100070002A0000000008000201000003040700003D
:1000800000000000000000000000230026002900FE
:1000900000000000250028002B00040404040404D0
:1000A0000404020202020202030303030303010227
:1000B00004081020408001020408102001020408F6
:1000C00010200C07360711241FBECFEFD8E0DEBF8B
:1000D000CDBF11E0A0E0B1E0E2E0FFE002C005909A
:1000E0000D92A039B107D9F722E0A0E9B1E001C033
:1000F0001D92A533B207E1F710E0C2E6D0E004C0DC
:100100002197FE010E946E07C136D107C9F70E94F0
:100110006C050C9474070C940000833081F028F473
:10012000813099F08230A9F008958730A9F08830A5
:10013000C9F08430B1F4809180008F7D03C080913C
:1001400080008F7780938000089584B58F7784BD79
:10015000089584B58F7DFBCF8091B0008F77809319
:10016000B00008958091B0008F7DF9CF1F93CF9399
:10017000DF93282F30E0F901EE58FF4F8491F90109
:10018000E255FF4FD491F901E656FF4FC491CC23BD
:10019000A9F0162F81110E948D00EC2FF0E0EE0FD8
:1001A000FF1FE057FF4FA591B4918FB7F894EC91E2
:1001B000111108C0D095DE23DC938FBFDF91CF9162
:1001C0001F910895DE2BF8CFCF93DF9390E0FC01D1
:1001D000E255FF4F249186569F4FFC01849188235E
:1001E000D1F090E0880F991FFC01E859FF4FA591CD
:1001F000B491FC01E057FF4FC591D49161110EC03D
:100200009FB7F8948C91E22FE0958E238C932881F0
:10021000E223E8839FBFDF91CF9108958FB7F894D1
:10022000EC91E22BEC938FBFF6CF0F931F93CF93FC
:10023000DF93EC01162F042F1B821A8288EE93E0C5
:10024000A0E0B0E08C839D83AE83BF8380E191E02A
:10025000998388831F8A1E8A198E188E1B8E1A8E88
:100260001D8E1C8E6E8D6E7F6D7F6E8F669561709C
:1002700081E06827842F0E94B60061E0802F0E94F1
:10028000E400802F90E0FC01E255FF4FE491E88B01
:10029000FC01E656FF4FE491F0E0EE0FFF1FE05740
:1002A000FF4F859194919A8B898B60E0812F0E94FA
:1002B000E4008E8D81FD04C061E0812F0E94B600B4
:1002C0001C87812F90E0FC01E255FF4FE491ED8700
:1002D000FC01E656FF4FE491F0E0EE0FFF1FEA57F6
:1002E000FF4F859194919F878E87DF91CF911F91CA
:1002F0000F9108953FB7F8948091150290911602DE
:10030000A0911702B091180226B5A89B05C02F3FF7
:1003100019F00196A11DB11D3FBFBA2FA92F982F2B
:100320008827BC01CD01620F711D811D911D42E026
:10033000660F771F881F991F4A95D1F708958F92EE
:100340009F92AF92BF92CF92DF92EF92FF924B01BA
:100350005C010E947A016B017C010E947A016C1998
:100360007D098E099F09683E734081059105A8F3B8
:1003700021E0821A9108A108B10888EEC80E83E036
:10038000D81EE11CF11C81149104A104B10429F7C9
:10039000FF90EF90DF90CF90BF90AF909F908F90A5
:1003A0000895AF92BF92CF92DF92EF92FF920F9398
:1003B0001F93CF93DF936C017B018B01040F151FFB
:1003C000EB015E01AE18BF08C017D10759F0699163
:1003D000D601ED91FC910190F081E02DC6010995C7
:1003E000892B79F7C501DF91CF911F910F91FF9074
:1003F000EF90DF90CF90BF90AF9008950895209137
:100400001B0230911C022817390771F490911902D0
:1004100080911A02981741F0E0911902F0E0E0573C
:10042000FE4F808190E008958FEF9FEF089508952B
:10043000EF92FF920F931F93CF93DF93DC015C96B3
:10044000ED90FC905D97E114F10479F481E090E087
:1004500013969C938E93129790E080E0DF91CF915A
:100460001F910F91FF90EF9008955196ED91FC919F
:10047000529750968C915097982F90950FB75E9603
:100480002C915E97122F127021FD6095F8942081B7
:10049000112319F1282B2083E7012197F1F728E098
:1004A000462F50E0308160FF1AC0382B3083E701BF
:1004B0002197F1F7BA0175956795215089F71123B6
:1004C00081F08081892380830FBF5C968D919C9100
:1004D0000197F1F781E090E0C1CF2923DCCF3923E8
:1004E000E5CF9081892BEFCF20911B0230911C0228
:1004F0002817390761F480911A022091190290E0BF
:10050000805C9F4F821B91098F739927089590E01B
:1005100080E0089520911B0230911C0228173907B2
:10052000B9F49091190280911A02981789F0E0911C
:100530001902F0E0E057FE4F80812091190230E06F
:100540002F5F3F4F2F7333272093190290E00895B8
:100550008FEF9FEF0895E0911B02F0911C02E817C6
:10056000F90769F4A389B4899C91858980958923C9
:100570008C9310921C0210921B0281E0089580E07F
:100580000895CF93DF93EC011B8E1A8E198E188E6F
:100590001F8A1E8A8DE991E09D8F8C8F8C85863114
:1005A000E0F52DEB30E03F8B2E8B2BE931E0398FDE
:1005B000288F2CE231E03B8F2A8F909168008830A1
:1005C00008F44EC021E08E3008F420E081E001C044
:1005D000880F2A95EAF7892B809368009C852DE681
:1005E00030E0983050F02BE630E09E3030F02CE6D2
:1005F00030E0963110F030E020E03C8B2B8B292F3F
:1006000030E0983078F581E001C0880F9A95EAF7DC
:100610008D8B8C8D9D8D0197F1F78A8D9B8D892B0C
:10062000E1F080911B0290911C02C817D907A9F034
:10063000009711F00E94AB028E8D8E7F8E8F1092EC
:100640001A0210921902D0931C02C0931B02EB896C
:10065000FC8980819D89892B8083DF91CF910895CA
:1006600084E0B9CF9E3040F42850310981E001C0C8
:10067000880F2A95EAF7CCCF2E503109F7CF90E0BA
:1006800080E00895CF93DF93EC0160E08E810E94BB
:10069000B60061E08E810E94B60060E08E810E940B
:1006A000B6008BE891E00197F1F7DF91CF910895C3
:1006B000CF92DF92EF92FF920F931F93CF93DF932E
:1006C0006C017C0187E0E80EF11CD0E0C0E0062F51
:1006D00010E0B8010C2E02C0759567950A94E2F7F8
:1006E0006170F70181917F010E94B6002196C430AC
:1006F000D10579F7C601DF91CF911F910F91FF903E
:10070000EF90DF90CF900C944203CF92DF92EF9264
:10071000FF920F931F93CF93DF93EC01F62E642F7C
:100720008C810E94B6008D818F3F19F060E00E949D
:10073000B6000F2D10E08F8584FF25C06E0187E085
:10074000C80ED11CF12CE12CB8010E2C02C07595FD
:1007500067950A94E2F76170F60181916F010E943A
:10076000B600FFEFEF1AFF0A88E0E816F10461F720
:10077000CE01DF91CF911F910F91FF90EF90DF900D
:10078000CF900C944203B80184E0759567958A95E3
:10079000E1F7CE010E9458036F2DCE01DF91CF917A
:1007A0001F910F91FF90EF90DF90CF900C94580322
:1007B00040E0682F8DE192E00C94850381E00E9477
:1007C000D8038BE39FE10197F1F70895CF93DF936F
:1007D000823029F490912C02986090932C0280939F
:1007E00030021092310280E48093320280E18093E3
:1007F000330280E58093340261E0809121020E94FF
:10080000E400809122028F3F19F061E00E94E40031
:1008100061E0809123020E94E400CDE1D2E09E01DC
:100820002D51324080912C0284FD0BC084E090E079
:1008300021962817390744F461E08E810E94E40074
:10084000EECF88E090E0F4CF8BE39DE00197F1F7E5
:1008500060E0809121020E94B60060E08091230256
:100860000E94B600809122028F3F19F060E00E9442
:10087000B60080912C0284FD34C063E08DE192E0EB
:100880000E945803CBE4D6E4CE010197F1F763E070
:100890008DE192E00E9458032197F1F763E08DE12A
:1008A00092E00E94580383E592E00197F1F762E03D
:1008B0008DE192E00E94580380912C0280620E9498
:1008C000D80384E080932D028CE00E94D8030E941C
:1008D000DE0382E080932E0286E0DF91CF910C94BC
:1008E000D80380620E94D8038BE496E40197F1F765
:1008F00080912C0280620E94D80383E592E00197E8
:10090000F1F780912C0280620E94D803D5CF90919C
:100910003002891710F08FEF890FE82FF0E0E35EC7
:10092000FD4F848980680C94D80341E00E948503C0
:1009300081E090E00895FB0101900020E9F73197F4
:10094000AF01461B570BDC01ED91FC910280F38156
:10095000E02D09941F920F920FB60F9211242F933E
:100960003F938F939F93AF93BF9380911102909188
:100970001202A0911302B09114023091100223E0F0
:10098000230F2D3758F50196A11DB11D209310029C
:100990008093110290931202A0931302B093140259
:1009A0008091150290911602A0911702B091180241
:1009B0000196A11DB11D8093150290931602A0937C
:1009C0001702B0931802BF91AF919F918F913F9101
:1009D0002F910F900FBE0F901F90189526E8230FB0
:1009E0000296A11DB11DD2CF1F920F920FB60F928A
:1009F00011242F933F934F935F936F937F938F9324
:100A00009F93AF93BF93EF93FF93E0911B02F091FD
:100A10001C02309749F0A685B7858585968D91FF94
:100A200014C09C918923A1F4FF91EF91BF91AF91E4
:100A30009F918F917F916F915F914F913F912F91F6
:100A40000F900FBE0F901F9018959C91892361F70E
:100A5000A389B4899C918589809589238C93868903
:100A600097890197F1F7608D718DA685B7855585BA
:100A700038E020E0CB010197F1F7822F90E09595C7
:100A80008795282F4C91452309F02068315091F724
:100A9000868D81FD209580911A0290E001968F73DA
:100AA000992730911902381799F0A0911A02B0E0F5
:100AB000A057BE4F2C9380931A02828D938D01977D
:100AC000F1F7A389B4898C919589892B8C93ACCF4C
:100AD000868D8160868FF1CFCF93DF93CDB7DEB760
:100AE000A1970FB6F894DEBF0FBECDBF789484B542
:100AF000826084BD84B5816084BD85B5826085BD1A
:100B000085B5816085BD80916E00816080936E00A7
:100B10001092810080918100826080938100809199
:100B2000810081608093810080918000816080934A
:100B300080008091B10084608093B1008091B0000A
:100B400081608093B00080917A00846080937A0005
:100B500080917A00826080937A0080917A0081602F
:100B600080937A0080917A00806880937A00109256
:100B7000C10060E08EE00E94E40060E083E10E943A
:100B8000E40061E088E00E94E40061E089E00E9406
:100B9000E40061E08DE00E94E4008FEE91E00E94AD
:100BA000C10280ED91E00E94C10282E00E94E60352
:100BB0000E94DE0380E00E9487046EE171E08DE117
:100BC00092E00E949B0460EA7FE080E090E00E9457
:100BD0009F010E94DE0381E00E94870465E371E0CB
:100BE0008DE192E00E949B0460EA7FE080E090E06B
:100BF0000E949F010E94DE0382E00E94870465E458
:100C000071E08DE192E00E949B0460EA7FE080E069
:100C100090E00E949F010E94DE0383E00E9487040F
:100C200063E571E08DE192E00E949B0460EA7FE061
:100C300080E090E00E949F010E94DE039AE0492E2E
:100C4000512C612C712C25E8822E20E0922E3DEA59
:100C5000232E30E0332EAA24A394B12C80E4809379
:100C60007C0080917A00806480937A0080917A0081
:100C700086FDFCCF009178001091790080E00E9401
:100C800087046FE571E08DE192E00E949B0481E0B2
:100C90000E9487046EE671E08DE192E00E949B0461
:100CA0006801012E000CEE08FF08F7FE87C041E046
:100CB0006DE28DE192E00E94850322273327A9018E
:100CC0002C193D094E095F0919A2FE01B1967F0159
:100CD000CA01B901A30192010E944C07605DF701AE
:100CE00062937F01211531054105510589F7E11412
:100CF000F10429F0B7018DE192E00E949B04F40118
:100D00008491E1ECF0E0E490F101F490F1106CC01A
:100D100010920F0210920E0268EC70E080E090E0FA
:100D20000E949F01085C1109093C110520F0B09256
:100D30000F02A0920E0280910E0290910F0261E0CC
:100D4000019709F061C08DE00E94B60060E088E084
:100D50000E94B60061E089E00E94B60064EF71E095
:100D600080E090E00E949F0160E08DE00E94B6006C
:100D700064EF71E080E090E00E949F018FEE91E0CF
:100D80000E947402892B91F06BE771E08FEE91E085
:100D90000E949B046DE871E08FEE91E00E949B043D
:100DA00068EE73E080E090E00E949F0180E090E0B8
:100DB000892B09F453CF0E94000050CFA701960160
:100DC00019A2CE0181967C01CA01B901A301920149
:100DD0000E944C07605DF70162937F012115310588
:100DE0004105510589F783CF81110E948D00EF2DB8
:100DF000F0E0EE0FFF1FEA57FF4FA591B4918C91E1
:100E0000E82209F485CF8ECF88E00E94B60060E02A
:100E100089E00E94B600A8CF41E060E080ED91E05B
:100E20000E941501EDE1F2E01382128284E091E06C
:100E30009183808382E084838FEF858383E0868340
:100E400084E0878385E0808786E0818787E08287EA
:100E50001386148615861686178681E00E94E6039F
:100E60004BE06AE08FEE91E00C941501CF93DF9395
:100E7000C0E1D1E0D093F001C093EF018FEE91E09B
:100E80000E94AB02D093D101C093D00180ED91E0DC
:100E9000DF91CF910C94AB02A1E21A2EAA1BBB1BCF
:100EA000FD010DC0AA1FBB1FEE1FFF1FA217B30736
:100EB000E407F50720F0A21BB30BE40BF50B661F4C
:100EC000771F881F991F1A9469F760957095809510
:100ED00090959B01AC01BD01CF010895EE0FFF1F5E
:100EE0000590F491E02D099410E0C2E6D0E004C032
:100EF000FE010E946E072196C336D107C9F7F89408
:020F0000FFCF21
:100F0200000000009504D1013F03FE010000000033
:100F12001802D1013F03170274028A02FF015745EA
:100F22004C434F4D4520544F20444B54204E49478B
:100F32004552494100444B5420534D415254205391
:100F420048454C460050524F44554354205348455F
:100F52004C46004B49535320434F4E444F4D005093
:100F6200524F445543542053454E534F520053540D
:100F72004F434B205745494748540041542B434E59
:100F82004D493D322C322C302C302C30000D0A00D1
:00000001FF
